:400000000040002011000000E9060000E906000008B500F06BFBC04638B512222A4B1A6001F014FD294801F083FE012001F02EFD302001F023FC264A264B1A60264C802554
:40004000ED052560254A116802230B431360244A244B1A600022244B1A60244A136808218B431360FA20C00001F0BCFC204801F0AFFC204A204B1A60204B214A1A60FE2240
:40008000120220490A602049196020490A60204A1A60802212061F4B1A608022D2021E4B1A6042221D4B1A60023A1D4B1A6001321C4B1A6008201C4901F03AFC082001F084
:4000C00017FC256038BDC04630001040001BB7000600008004010B400C020B4078002E402D3E00007C002E4064F02E406CF02E40DC050000007FBB0008030140000001407D
:4001000042FF00800003014040FF00800403014041FF008008010B4000010B402C0101401401014010010140A51B000010B572B60022364B1A60002410E0354863001A194C
:400140005200821891881B195B001A5AC31858880004104300F032FB0134E4B2012CECD92B49081C0C30243100F00EFB8022D202284B1A60EE221206274B1A60C022920579
:40018000264B1A6099231B04254A1360254A1360254A1360254A136080221206244B1A60244B197802220A431A70234802783C218A4328390A430270197816220A431A7084
:4001C00001231E4A13601E491E4A116080211E4A11601E491E4A11607E211E4A1160C02149031D4A11603E211C4A116082311C4A1160D82109041B4A11601B4A13601B4AB0
:400200001360FFF709FF00F0FFFA10BD6CF02E400023010014000B40000002400003024000500F4010500F4020500F4030500F4038500F4000700F4001700F40000004404D
:40024000B601DB000800044000010440B60DC000080104400002044008020440180204400003044008030440000404401804044010B5064C2378002B07D1054B002B02D059
:40028000044800E000BF0123237010BD98040020000000009422010008B5084B002B03D00748084900E000BF07480368002B00D108BD064B002BFBD09847F9E7000000008E
:4002C000942201009C040020C80000200000000000B585B000F0B8FA434243416A46D3700332084B1B78022B0AD101A80C3303810192012383800021034A00230DF0D6FB6F
:4003000005B000BD601F0020681F002000B585B001F006FD434243416A46D3700332084B1B78022B0AD101A8133303810192012383800021034A00230DF0B8FB05B000BD28
:40034000601F0020681F002000B585B0074B1B78022B09D101A816330381173B83800021034A00230DF0A2FB05B000BD601F0020681F002000B585B0074B1B78022B09D1DD
:4003800001A8193303811A3B83800021034A00230DF08CFB05B000BD601F0020681F002000B585B0124B1B78022B1FD101A80F330381104B01930223838000210E4A002386
:4003C0000DF074FB0D4B1B68002B0CD0094B1A885B889A4207D0084A137850780002184301A90CF0D3FD034B1A885A8005B000BD601F0020CC000020681F0020DC1300202E
:4004000038B50C1C282808D002D8012805D00AE141280BD04C2816D005E10022824B1A60002000F0ABFF01F0C5F9FCE0FFF750FFFFF76CFFFFF7B4FFFFF786FFFFF79AFF31
:4004400001F05AF9EFE08B890E2B3CD1081D0021764A32330DF02AFB002834D163681B78002B0CD158425841C0B200F0E1F96F4A13785078000218430CF0E6FD23E058429B
:400480005841C0B200F0D4F9684A13785078000218430CF0D9FDFA20800001F081FA644B187900F0F7F8012001F0CEFB002001F0D7FBFA20400001F073FA002001F0C4FBD5
:4004C000002001F0CDFBA389152B3CD1201D0021564A2B330DF0EAFA002834D163681B78002B0CD158425841C0B201F00DFC4F4A13785078000218430CF0A6FD23E05842B6
:400500005841C0B201F000FC484A13785078000218430CF099FDFA20800001F041FA444B187900F0B7F8002001F08EFB012001F097FBFA20400001F033FA002001F084FB24
:40054000002001F08DFBA3891B2B32D1201D0021364A25330DF0AAFA00282AD163681B78002B07D1314A13785078000218430CF06BFD1EE02D4A13785078000218430CF062
:4005800063FDFA20800001F00BFA294B187900F081F8012001F058FB012001F061FBFA20400001F0FDF9002001F04EFB002001F057FBA389182B20D1201D00211B4A28338E
:4005C0000DF074FA002818D163681B78002B0AD1174B5A791A71154A13785078000218430CF032FD09E0124B9A791A710F4A13785078000218430CF027FDA389122B12D1C8
:40060000201D0A4D00212A1C2E330DF04FFA63681B7801221340044A13602B786878000218430CF011FD38BDDC130020681F0020CC00002008B562B6002000F02BF80120D9
:4006400001F002FB012001F00BFB012001F014FB012001F01DFB00F0F3F900F07DFB0B4800F048FE00F058F9002809D100F0C2FC074B188000F0ACFC00F0B2FAFFF790FEC9
:4006800001F068FF032001F05DFFEBE701040000CC00002038B5051C002001F005FB002001F026FB002418E00120284001F020FB6D08012001F010FB002001F001FB0A20E4
:4006C00001F06EF9002001F007FB012001F0F8FA0A2001F065F90134E4B2072CE4D9002001F0E2FA38BDC046FEE7C04670B50F4E0F4D13E029686B68AC68002202E001C96D
:4007000001C30432A242FAD1E868002202E0002102C304328242FAD11035013E002EE9D101F0CAFEFFF786FFFEE7C04601000000EC29010008B50F4A136801218B4313607B
:4007400000230AE0032B03D89A000B49505800E00A4899000A4A885001332F2BF2D9FFF7E5FC0022074B1A60024A116801230B43136008BD0000104000000000E90600000A
:4007800000000020C0000020F0B50025002711E0BB00C658F3B2FF22964308E06A008A181478A419527822700135013BDBB2002BF4D10137052FEBD9F0BDC04608B50A1C91
:4007C000002101F0B7FE08BD0C4B1B68002803D080221206134301E05B005B08074A1360074B1B68002803D080229204134301E0044A1340024A13607047C04680033A40CC
:4008000008010B40FFFFFFFD08B50323054A1360054A13600022054B1A600120FFF7D4FF08BDC0463000304030003140000E3F4004490A68BF231A4080017F3B18401043B3
:400840000860704700020440024B18684006C00F7047C0460402044038B5164C2368DBB2154A13700F208343191C144D2A780F2313400B43F02293431A1C2B788343134304
:4008800023600F4A0F4B1A600F4A104B1A6010490B688343062213430B60013001F032F810200C4901F044F81020032101F052F838BDC04600FF2840ED13002062F1FF0F6F
:4008C00000020001080028400008A00104002840000402407110000008B500F0B3FF00F087FF0020002100F08FFF0020002100F0B5FFFF2000F06EFF402000F095FF044A82
:40090000136804490B431360102000F0F1FF08BD0400284000100880024B1878012318407047C046B40400204000024B181880887047C046B4040020F8B5104F3C5C381819
:40094000027A55005519EDB29200D6B201F0F9F9A4003B191C6922680F21B1408A43111C0422B2400A43DE6A33680721A9408B433360226001F0E9F9F8BDC046D4230100B8
:40098000F8B519490C5C0B181E7AB200D2B275007519EDB2154B185CA300CB181F693B680F2191408B433B60022800D10020012801D1002700E0062701F0C3F9A4000A4B4E
:4009C0001C19E16A0B680722AA4093431A1C3B1CAB4013430B6001F0B8F9A16C0B680122B24093430B60F8BDD4230100F813002010B5002403E0201CFFF7C2FF0134042C6E
:400A0000F9D910BD03231840024B1A6840021043186070470400284008B5002303E00021064AD1540133042BF9D9FFF715FF0020FFF7E8FFFFF7DCFF08BDC046F81300203E
:400A400008B50B4B9B7B002B04D1FFF7E5FF0122074B9A73FFF740FF00F0D0FB0122044BDA73044A13688021C9030B43136008BDB404002004002840CA0807231940063BAC
:400A80008B40191C835C194201D0012000E000207047C04610B5041C0134E4B2052C06D004480430211CFFF7E7FF0028F4D0201C10BDC046D4000020F8B5041C324B64332D
:400AC0001B5C9B00314A9E583148211CFFF7D4FF304B9E4203D88640FF200004064300F0B1FE00F085FE2C4B185D013880B2002100F08AFE294B185D013880B2002100F025
:400B0000ADFEFF2000F066FE402000F08DFE102000F0F8FE80225202214B1A60204B1B681B0CFBD101221F4B1A60102000F0F4FE102000F0DDFE102000F0E4FE1A490A68FE
:400B40001A4B1A401A4B185D1A4B1B5D1B04034313430B60184F3D68184B1D40184B1D43102000F0C5FE201CFFF7E6FE01F0E9F8041C3D60002001F0DBF8094B1E60201CD0
:400B800001F0E3F8F8BDC046D4230100D4000020EC130020FFFFFEFF00140020081400200C002840140028400800284000FF80FFE4130020F013002004002840FF1FDFFFB8
:400BC00020E0200008B5054B00221A70C2B21A7481221A70FFF770FF08BDC046B404002010B50B4C00232370FF332374207CC0B2FFF750FF2074237CDBB2042B07D8217890
:400C000001220A432270207CC0B2FFF755FF10BDB404002038B5051C174B1C68A4B24300164AD3189C80164B64331B5C9B00154A9A58154B9A4208D81448291CFFF71CFF98
:400C40006B000E4AD31804419C80281CFFF798FE102000F057FE0E4A11680E4B0B40A02109020B4313600C4A11680C4B0B401360102000F03DFE38BD0C002840B40400209E
:400C8000D4230100D4000020FFFFFEFFEC13002004002840FF1FDFFF0800284000FF80FF10B5CC0807231940063B8B40D9B2002A04D0041923781943217003E004192378E7
:400CC0008B43237010BDC04670B5061C002400250BE0301CFFF776FFFFF71EFE0128FBD0301CFFF721FE24180135002DF1D0A0B270BDC046F0B5002714E00C4BDE5D0C4B99
:400D0000DB5D9E191A1C002404E08D5CA54200D92C1C0132B242F8D301E0CC540133B342FBD301378742E8D3F0BDC04654240100582401004300054A9A5A05495A520818A6
:400D400000210173017503495A527047B8040020C80400201414002010B5FFF741FFFFF7DBFD0028FBD1002409E00648211CFFF783FE002802D0201CFFF7DCFF0134042C71
:400D8000F3D910BDD800002070B5094D14352D180026FF20002308E0EC5C944203D9A64201D2261C181C0133DBB28B42F4D370BDC8040020F0B583B0041C0192009308ABDF
:400DC0001878344B14335918002C02D0661EF6B200E00026631CDDB20B5D9C462D4B243362465A70002C07D12A4B002624229E544A5D24339A7012E0019A013A944207D10E
:400E0000895D244B24229954243300229A7006E08E5D204B24229E544A5D24339A7024231C4AD35C834204D91B1A242219498B5403E000212423174AD154164A243253789F
:400E40001B1ADBB253709278824204D9101A114A2432907003E000210E4A243291700D490A1C243292782420095C501AC9188918000201F02FFA240204196B460020185E9D
:400E80006043FE23DB019C466044000CC0B203B0F0BDC046C804002043184900C818800880B27047F0B5474680B482B0041C3B4B1E5C3B4B9B5D019342003A4BD75A3A4B00
:400EC0005B7A002B08D0394D9046515B381CFFF7E3FF071C43465853E1B23548314A00F0F7FF6300334A9A5ABA4207D80021324B1955BD1AADB20123984603E0D51BADB2F9
:400F0000002398464346002B15D12C4B9B5DAB4211D2294B1B5D244A12191279934206D3201CFFF707FF0022234B1A551CE00133214A135518E06B469B88AB4206D21F4BE4
:400F40009B5DAB4210D94346002B0DD11302194801190E7B3343FF18BF1A3A0A6300C2520F730022144B1A556B469E88AE420DD24346002B0AD0FF2D04D90E4B1C19FF2378
:400F8000237507E00B4B1C19257503E0094B1C190023237502B004BC9046F0BD3824010024140020B8040020F00000201414002040140020C80400202C140020281400206C
:400FC00010B5041C00F0A2F8201CFFF76BFF10BD10B5002409E00648211CFFF74DFD002802D0201CFFF7ECFF0134042CF3D910BDD800002030B583B0041C194B1B181D7B08
:40100000184B1A5C00200521FFF7BEFEFF2820D0154B1B5D009300210522C8235B01FFF7C9FE011C80B26B1CDBB20D4A5219127B002A06D10A4AD3181973551901232B7363
:401040000CE0074CE418217BFFF726FF031C237304E0034B5D1900232B73044803B030BDF00000201014002024140020FFFF000010B5102000F046FC01221E4B1A601E4B34
:401080001878C0B2FFF7C6FD1C4B1B785BB2002B05DA1A4A137801218B43137026E0164C2078C0B2FFF7F6FC20702378DBB2042B05D8114B1878C0B2FFF7FEFC16E00F4B46
:4010C0001A7801218A431A701B785B060ED500220B4B1A7006E00B4AD15C0B4AD1540133074A1370064B1B78002BF4D0102000F0FFFB10BD14002840C4040020B40400202C
:40110000F0040020E0130020D800002070B582B0154B1C5CC1B2154E154D00951548221C331C00F053FF335D295D134A1155DB2B03D8DB08114A135514E0EC2B03D81B09FE
:401140000E4A13550EE0F42B03D85B090B4A135508E0F92B03D89B09084A135502E00022064B1A5502B070BD382401001014002024140020401400202814002020140020A1
:40118000024A136840218B431360704704002840044A1168044B0B40802189000B4313607047C04608002840FFFCFFFC38B5002208E00D498B5C5D080C4CA55401335B08B3
:4011C0008B54013203789342F3D8102000F09AFB074A1168074B0B4007490B431360102000F086FB38BDC046E4130020F013002008002840FFFCFFFC0002000170B5254BC1
:4012000005221A70012159709A702B32DA80224A9A80224A9A60FFF7B3FF002304E099001F48204A885001331A4A52789A42F6D8002306E010211C4AD1540C391B4AD154D4
:401240000133042BF6D9FFF7A3FF124C184E201C311C00F09DFD174D0120291CFFF74AFD201C00F0A6FD201C311C00F091FD0120291CFFF73FFD201C00F0BCFD201CFFF741
:4012800095FF002403E0201CFFF740FF0134042CF9D970BD40140020980900005C2401000000FF0FD400002008140020001400209A0D0000E413002008B500F013FA08BD79
:4012C00010B50024064B1C70064B1C70064B1C70FFF7F2FF054B1C70054B1C7010BDC0466B1F0020641F00206A1F002088140020581F002010B58AB0041C04A8164918224F
:4013000001F00FF92023154AD35C002B05D1FFF7D7FF01212023114AD154002C19D0104B1C60062300930F4B01936E23FF3302930D480E490E4A04AB01F022F9002809D182
:4013400001220C4B1A700C481C210E320CF096FB00E001200AB010BD00250100F40400208C14002080300100D514000090140020C80A0000601F00200027010008B50228A7
:401380002ED81B4B1B78042B2CD11A4B1B785B072BD4002809D1184B00221A862032596A0A805B6A10325A800CE001280AD1124B96221A86C822D200596A0A805B6A8022ED
:4013C000D2015A800D4B18700B4820300AF09CFC00280CD1074A117804230B43137006E0012004E00420FF3001E00420FF3008BD601F00206B1F0020080100206A1F002002
:401400007047C04603784078000218437047C04638B583890B2B20D1041C04300021221C35330CF043FB051E11D16068FFF7EAFF830706D50A4B1B6882204000211C984746
:4014400005E0074B1B680620FF30211C9847054A137801218B43137000E00025281C38BD8C1400206B1F0020024B00225A701A707047C046681F00208379002B07D0002007
:401480000BE0C25C002A07D10133DBB200E00023052BF6D9002000E00120704710B582B0041CFFF7B5FF0A4B1B78DB070ED4002809D001A912238B70A3890B80C8702068C7
:4014C0000BF048FD02E020680BF0BEFD02B010BD6B1F0020F0B583B0041C0D1C724A117801230B431370272878D00CD8212860D004D801281BD0052857D0C4E0242869D0A7
:40150000262873D0BFE0422800D1A8E005D8282868D0412800D191E0B5E04C2800D1A9E0FA2800D1AAE0432800D0ACE09AE001AE0727377000237370301C02F0BEFC37705E
:4015400001237370301C02F0B8FC584B1E68301CFFF792FF00280CD0301C00F0FFFF534E30680021FFF74CFF30680121FFF748FF14E04F4B1B784F4E33704F4B1B78737035
:401580004E4B1B78B370301C00F0E8FF301C0021FFF736FF301C0121FFF732FF00200AF075FA0422464B1A706DE02A78454B1A7069E03D4B1B789B0665D4434B1B78102B1F
:4015C00002D10522404BDA70404B18783E490AF065FB58E06A783E4B1A7054E00222384B1A7050E00422364B1A704CE0344B1B78022B48D02C4A1278D20744D52A4A1278BA
:40160000520708D503222E4B1A70274A137804218B43137037E0244A1278120708D50422274B1A70204A137808218B4313702AE0032B28D10422224B1A7024E0234E301C35
:40164000291C022200F06DFF31785A318900214B591805312048042200F063FF13E0FFF703FF10E06988162900D9172128880BF07DFC08E0281CFFF711FF04E0174A1178B5
:4016800001230B431370084B1A7811231A4209D0054A137801218B431370114B1B68201C291C984703B0F0BD6B1F00203C0100207CF1FF0F400100207DF1FF0F7BF1FF0F22
:4016C000601F0020641F00205C020020681F0020581F0020803001005C1F0020881400208C1400207047C046024A117880230B431370704772000F40024A11787F230B40E4
:401700001370704772000F40014B18707047C04602000F40014B18707047C04642000F40014B18707047C04622000F40014B18707047C04682000F40014B1878C0B2704741
:4017400062000F40014B1878C0B2704752000F4008B501E0FFF7F6FFFFF7EEFFC306F9D408BDC04610B511490B783F229343363A13430B700E4C2278012313432370FF200B
:40178000FFF7C2FFFF20FFF7C5FF7F20FFF7C8FF0020FFF7CBFF00F0D4FA227810231343237000F0D2FAFFF7D3FF10BD72000F4092000F4008B5064B1B78002B04D1FFF75F
:4017C000D1FF0122024B1A70FFF78EFF08BDC04618050020044B1B68002BFBDB0002034B1843014B186070470000014040000080034B1B68002BFBDB024A014B1A607047FF
:40180000000001404000004010B5064A13680724234000021843CB00FF2119400143116010BDC04600030140044B1B68002BFBDB0002034B1843014B186070470000014022
:4018400041000080034B1B68002BFBDB024A014B1A607047000001404100004010B5064A13680724234000021843CB00FF2119400143116010BDC0460403014010B586B0C0
:40188000041C00F05EFA0E4B1B6800930D4B1B680193033C0C4B1B5D02930C4B1B68039304AA0B4B04936B4605930A4B1A600A490A4A11601B6800F048FA06B010BDC046C6
:4018C00008010B4000010B409829010030001040B6EA0000080010401700008004001040024B1B68012018407047C0460C002E401F2318401E3B8340181C014B186070473E
:4019000000E100E01F2318401E3B8340181C014B1860704780E100E01F2318401E3B8340181C014B1860704780E200E001BE704738B5041C0D1C1F2802D90020FFF7F6FFC0
:40194000A400034B9C4664442068256038BDC0464000002070B5041C0E1E032E02D90020FFF7E4FF1F2C02D90020FFF7DFFF03252540ED00063500F0E4F9A408A400074BCF
:401980009C46644423680322AA409343AE40351C1D43256000F0D9F970BDC04600E400E010B5041C06E0084B186800F0C1F9074B9C46644480231B029C42F4D8024B5868B5
:4019C000604300F0B5F910BD600200200080FFFF08B5034B1B7A584300F0AAF908BDC0466002002010B5041C0F4A116801230B4313600E4A0E4B1A600E4A13688021090278
:401A00000B431360002809D100200CE00120FFF7DFFFFFF765FF002804D1013C002CF5D1102000E0002010BD60F02E400220000078002E4010002E40034B1868C0231B024D
:401A4000184000D00120704700010B4010B50D4B1A6801218A431A601A68022082431A60094A10683024A043203C204310601068093CA043014311601A68802109060A432A
:401A80001A6010BD00F02E4000FF2E4038B51D4B1B6801241C40002802D0012816D02BE0184B19680122914319601968022081431960154B19682E3081432038014319605B
:401AC0001968093881430A431A6018E00D4B1A6802218A431A600C4A10680725A84301431160116830208143103801431160196801220A431A6002E00020FFF717FF201C84
:401B000038BDC04600F02E4000FF2E4008B500F018F9044A1368C02109020B43136000F014F908BD00010B4010B500F00AF908490A68084B1A408024E40122430A600A68AB
:401B400013408022120213430B6000F0FEF810BD00010B40FF3FFFFF70B5061C00F0F1F8041CFFF769FF002803D0FFF7DDFF012500E000250848331C0340084A10680849CD
:401B80000840184310601368012D01D1FFF7BEFF201C00F0DAF870BD0404040010020B40FBFBFBFF10B5244B1B685B0715D5234B1B685B070ED5224B9969042001401F4CE8
:401BC00022688A4322609A6982439A61DB68002B00D098470420FFF7BFFF174B1B685B0518D5164B1B685B0510D5154B99698022D2001140114802688A4302609969114A83
:401C00000A409A611B69002B00D098478020C000FFF7A2FF084B1B685B030CD5074B1B685B0304D5064B5B69002B00D098478020C002FFF791FF10BD10020B407002002056
:401C40001C050020FFFBFFFF031C04490868FE2202400120184010430860704700000440044A11687F230B40C001C0B2184310607047C0460001044004490A68FB231A40D3
:401C80008000F73B18401043086070470001044004490A68FD231A404000FB3B184010430860704700010440031C04490868FE220240012018401043086070470001044037
:401CC00004490A68FD231A404000FB3B18401043086070470000044004490A68F7231A40C000EF3B18401043086070470001044004490A68DF231A404001BF3B18401043FA
:401D0000086070470000044004490A68BF231A4080017F3B184010430860704700030440024B18684006C00F7047C046040304400230800803D00138FDD1C046C046C04669
:401D40007047EFF3108072B6704780F310887047F7B59C180023071C08268025019100922370237800982B432370BB689B6C9847019B984202D22378AB432370013E6D0812
:401D8000002EEED12378F82B01D9F8232370F7BD70B5051C0E1C00242B789C4208D2AB68221C281C311C1B68FFF7D2FF0134F3E770BD38B5051C00242B789C4219D2AA6835
:401DC00013681B5DDB080F2B00D90F23D16BD268C95C1155AA68042B04D9936D906B211C012203E0936D906B211C002298470134E2E738BDF0B5041C002687B063789E4262
:401E000062D2A3685A6C925D0392002A01D1013203921A6C925D019201992278914251D29A689B69515C0F221140B2000492002205910499019D5A50019B5B000293039BDF
:401E4000019A9B189D423DD2A768E388A0885843FB68595D00F03EFA3B68595D00F0AAF9059B5843194B40005A2802D95B084008FAE7BA6904991B0C1B045350A3688208B6
:401E80005B6B01215855A368C008DB69029F5A550F22A36849421B6A5855A3685B6A5A55A368986AC1530021D86AC153186B9B68C1535B19197801350A401A703B1C0233E1
:401EC0000293BCE7013699E707B0F0BD0000FFFFF0B585684E002B6B925B9B191C8887B0141B0094AC6A1A80A45B6B6A0294EC6A5F5CA45B2B6A03946C6B7F00645C5B18FD
:401F00000494AC680193645C1B780594009CE40FA4460F24251C6744009C3D40AC46E51764196C409C4203D2012B05D0013B00E00133FF273F2B00D89F00019D2B706546BE
:401F40000F2D29D0002D24D0BC4225D8059C029F24090094974200D9171C039D954200D2151C009A092A01D8141C01343A1C0A2C14D1EA1B934206D9049A92089A42924192
:401F800052429B1A00E001338268D26953543A1C04E0151C644601E0151C00246746836824015B6A5F5483689F6ABA53DA6A9B6895530F225B181D782A401A7083689B682D
:401FC00059180B781C430C7007B0F0BD70B58068446BC069655C405CFF213F2801D88100C9B246B2FF24002E01DB4000C4B28D4201D9291C6C08012081439954049B9C5472
:4020000070BD00000160704701607047244B1A781202244B1B781A43234B1B781B02234909780B4322498B4201D1072A06D0D42109018B4206D1042A04D102E01D4B04224F
:4020400000E01C4B1C490B601C4B1A601C4B1B781B021C4A1278134380229201934202D0002B02D002E0184B00E0174B174A1360174B1B781B02174A12781343164A93424F
:4020800005D0164A934204D0052B05D103E0144B02E0134B00E0124B124A13607047C046D9F0FF0FD8F0FF0FDFF0FF0FDEF0FF0F580B0000580D00006C002E4074002E4007
:4020C000DBF0FF0FDAF0FF0F0220000078002E40DDF0FF0FDCF0FF0F0F0F000005050000050F000080002E4008B5FFF771FC08BD08B500F02FF808BD08B500F033F808BD2D
:4021000008B500F02FF8034800F00EF8032000F011F808BDAD21000008B5024800F02AF808BDC046AD210000014B18677047C0460000002010B5041CFFF703FE044A1368DC
:40214000C0218B43A4011C431460FFF7FEFD10BD0CE400E080225201014B1A607047C04600E100E080225201014B1A607047C04680E100E010B5041CFFF7F4FF201CFFF7B8
:40218000D3FF0320FFF7D6FFFFF7E4FF10BDC04608B5FFF7D6FD044A136804218B43136030BFFFF7D2FD08BD10ED00E008B510F05DF808BD002243088B4274D303098B4277
:4021C0005FD3030A8B4244D3030B8B4228D3030C8B420DD3FF22090212BA030C8B4202D31212090265D0030B8B4219D300E0090AC30B8B4201D3CB03C01A5241830B8B425E
:4022000001D38B03C01A5241430B8B4201D34B03C01A5241030B8B4201D30B03C01A5241C30A8B4201D3CB02C01A5241830A8B4201D38B02C01A5241430A8B4201D34B02F0
:40224000C01A5241030A8B4201D30B02C01A5241CDD2C3098B4201D3CB01C01A524183098B4201D38B01C01A524143098B4201D34B01C01A524103098B4201D30B01C01A25
:402280005241C3088B4201D3CB00C01A524183088B4201D38B00C01A524143088B4201D34B00C01A5241411A00D20146524110467047FFE701B5002000F0FCF802BDC046A6
:4022C0000029F7D003B5FFF775FF0EBC4243891A1847C04603460B437FD4002243088B4274D303098B425FD3030A8B4244D3030B8B4228D3030C8B420DD3FF22090212BA84
:40230000030C8B4202D31212090265D0030B8B4219D300E0090AC30B8B4201D3CB03C01A5241830B8B4201D38B03C01A5241430B8B4201D34B03C01A5241030B8B4201D3A1
:402340000B03C01A5241C30A8B4201D3CB02C01A5241830A8B4201D38B02C01A5241430A8B4201D34B02C01A5241030A8B4201D30B02C01A5241CDD2C3098B4201D3CB016A
:40238000C01A524183098B4201D38B01C01A524143098B4201D34B01C01A524103098B4201D30B01C01A5241C3088B4201D3CB00C01A524183088B4201D38B00C01A5241F6
:4023C00043088B4201D34B00C01A5241411A00D201465241104670475DE0CA0F00D04942031000D34042534000229C4603098B422DD3030A8B4212D3FC22890112BA030A9C
:402400008B420CD3890192118B4208D3890192118B4204D389013AD0921100E08909C3098B4201D3CB01C01A524183098B4201D38B01C01A524143098B4201D34B01C01AC2
:40244000524103098B4201D30B01C01A5241C3088B4201D3CB00C01A524183088B4201D38B00C01A5241D9D243088B4201D34B00C01A5241411A00D20146634652415B1071
:40248000104601D34042002B00D54942704763465B1000D3404201B5002000F00BF802BD0029F8D003B5FFF715FF0EBC4243891A1847C0467047C0460E4B70B500251E1C99
:4024C0000D4CE41AA410A54204D0AB00F35898470135F8E710F078FA084B00251E1C084CE41AA410A54204D0AB00F35898470135F8E770BDD4290100D4290100D429010036
:40250000DC29010030B50024944208D0035D651C0C5DA34201D0181B02E02C1CF4E7002030BD002310B5934203D0CC5CC4540133F9E710BD031C8218934202D019700133CB
:40254000FAE7704710B501F043FC10BD10B501F055FC10BD10B500F067F910BD10B50749044609780220002907D1204601F067FC002802D1204609F073FB10BD7E03002058
:40258000FFB585B0002568460E9F057339481C460078002802D0082009B0F0BD10990F9801900097029105A807C800F067F80028F2D10120694603AA0D73002C1BD0002161
:4025C00013E08B00E55A082D09D91E19B678002E05D0083DE55213785B1C137003E0042901D2012003E0491CC9B2B942E9D31178042900D300200028CED110990F9800F070
:4026000099FF002801D00120C6E701F0F7FB1A480599016021888180A188C180A27A0272A17B4172A089012540084843A0810220A073208950432081A5726846037B224684
:402640000799069800F0A2F80028A5D16846094C007B607001F0DAFB00289DD1064806F0D5FC002898D106F0F1FC002894D1257092E700007402002038050020FFB53A4FF6
:402680001C4603463F780020364A0A9E0B9D002F12D100290FD0029991420CD3002B0AD0002C08D00999042905D3002E03D0FF216E318D4202D2012004B0F0BD00210A465B
:4026C0000D463FE08B001E19B678002E36D0E35A002B33D073435B199DB20B0000F048F806040E15191D253F2388FF27A678233BEB37BB42DFD2032EDDD31FE0A3880C2BFF
:40270000D9D91A4EB342D6D818E02389302BD2D114E0A389482BCED110E0228A134E1346233B223EB342C6D208E0A38A0F4F1E46233E223FBE42BED29342BCD80028BBD121
:40274000491CC9B2099B9942BCD319461C2251434A190449521802998A42ACD8ACE70020EEE70000D808000074020020DCFF000030B47446641E2578641CAB4200D21D46FD
:40278000635D5B00E31830BC18470000FFB50F4606460024384381B01D46800701D0012438E0FFF7B9FCFFF7A7FC00F097FA00282ED100F0D3FB00282AD11849084600F02F
:4027C000EDFE0004000C23D13000154E04D03060B7800020F0803581AD1DEFB23946039800F046F804000ED1B088F2880837801AF9B280B201F0C2F9002801D0012407E0C7
:40280000E8B200F019F900F031F906490120087000F076FA204605B0F0BD00005D290000440500207602002010B503480078012801D101F045F810BD7602002070B5084BBD
:402840000446DA889E8800205518B54206D81D68AA182260DA885118D98070BD032070BD44050020014800897047000044050020F0B587B007460D46002089000090069113
:402880006846FFF7DBFF844600285DD1304800990160002117E02E4B88001A680629115406D22C4C0419667882185670628805E0C419203CA67A8218567022891B68C018A0
:4028C000491C4280C9B2A942E5D300242DE0601CC2B2059025E01E4FA30039689600581840887118039604904E88B04217D938466F46FE80B6464F786E4677710297049F9F
:402900004F800168039F5E18767879184E700168764659184E800068029F18184770521CD2B2AA42D7D30598C4B2AC42CFD36046002809D168460699FFF780FF844600282F
:4029400002D1054900980860604607B0F0BD000078020020002A01007C0200207047000010B5002809D005494A68002A05D0011F08788000105801F0AFF810BD78020020C6
:4029800010B50446FFF76EFFC0B2801DA0420CD307484068002808D0A100405801F00EF8002801D00470001D10BD002010BD000078020020F8B516460D460446FFF752FFE3
:4029C000C0B2801DA04203D20020C0430090F8BDB2B2E9B2684601F017F80099481C03D0024AA000526811500098F8BD78020020F8B50746FFF736FF801DC6B20A49002091
:402A000005460C680DE06178002907D06188B94202D32078FFF7B4FF002804D1241D6D1CEDB2B542EFD3F8BD7802002010B5002801D0FFF795FF10BD70B5064609480025AD
:402A400004680BE06178002905D062882078121D0023FFF7AFFF241D6D1CEDB2B542F1D370BD000078020020002070471CB5002469460C70142001902346054A05480CF008
:402A8000C9FF04480068401C00D1FF2420461CBDE92A0000800200203EB5124A0146FF2000230124126800290DD0012914D0042908D104206946009308814B8110460CF0B8
:402AC000A4FF80B23EBD6846009304814381694610460CF095FFF4E768460093048143816946EBE78002002070B545890468416800890300FFF73CFE06240408081D2124FB
:402B0000002005F059FA1BE0022908D0C8B22A4621460BF029FA2046FFF788FF10E002202A4621460BF020FA2946204600F00AF806E000200CF062FC02E020460DF00AF871
:402B4000002070BD014B0022DB6818478402002070B5448905680089022803D0032809D0FF2070BD2246094C0023A46829460120A04708E0FFF7EAFC241DA2B200232946CF
:402B8000022006F026F9002070BD000084020020704700000248002141600180418070478402002070B50C46002186B016460391012802D0022859D116E003A9012006F0C3
:402BC00060F901281BD1039D324621462846FFF7A8FC0095287801900220694608814E816846FFF7B5FF41E0214D002B686809D0049004A9022006F044F901281DD0022068
:402C000006B070BD002812D0298840182146FFF788FC28880024801980B228806988091D884206D12C801348FFF792FF03E00320E6E788421AD96C6018E004986860E2781E
:402C4000A378110219430B4A698000231060E3565360032313815181A1788170E178C1706178417021780170042028800020C7E784020020500500203EB515460C460228DA
:402C800003D004280CD000203EBD0091019002206946088107484A8100680CF0B6FE07E00BF062F9044B0022DB6829462046984701203EBD8002002084020020014AD160EB
:402CC0009060704784020020034801688068081A0A214843000970475C05002010B5FFF70FFA542204490548FFF71BFC03490120C870002010BD00001C2A01003C080020B4
:402D000010B5FFF7F5F910BD70B5134C2368002B08D0207B1149C20705D04008400020738868A08070BD88680B4AA18880B29268814203D90A4D691A091802E0814202D273
:402D4000411A5118A160A080A0689842EAD300F015F80CF077FE70BD5C050020C0102E40FFFF000010B508461946FFF7A7FF10BD704710B5FFF780FF10BD00000348002172
:402D8000016041608160C160704700005C05002010B502000DD0FFF7F1FF074C0321207B0843207310010A21FFF78AFA2060002010BDFF2010BD00005C05002000B50448CC
:402DC0000A21806848430209FFF7D8FF104600BD5C0500200248007B8007C00F704700005C05002010B537490868002802DA364B01221A70022290430860344800693149D1
:402E0000C00B4031096A08425AD0012000F06CFA2E482F497C30FFF7F7F82A480E216C30FFF7F2F8294820218430FFF7EDF8274814219C30FFF7E8F82448FF21C131A43083
:402E4000FFF7E2F82148FF212F31B030FFF7DCF81E482049BC30FFF7D7F81C481E49AC30FFF7D2F81C491948491CB430FFF7CCF816481A49B830FFF7C7F814481849CC3028
:402E8000FFF7C2F8114817490830FFF7BDF80F481549A830FFF7B8F80C4814498830FFF7B3F80A4812498C30FFF7AEF807481921C9029030FFF7A8F8FFF7A8F8002010BD57
:402EC000FF2010BD00F02E409402002000002E4055650000320300002F3F00003102000010520000EC160000FA12000031D000003AE3000070B50646581C80B245086D0075
:402F0000002408E0304600F07FF81055000A1119A41C4870A4B2AC42F4D3D80705D0D0182038D15CC47FD454C17770BD30B50A4C002100195B1E07E0541864782502545CA7
:402F40002C430480891C89B29942F5DB994201D1515C018030BD000000102E4010B5FF2000F0C2F90F49FF2048700E481021801D41800121417001700A490020C91C487096
:402F8000FFF730FF04000AD100F0DEF807210648FFF738F8044807211830FFF733F8204610BD000094020020CC112E4030B504465B1C1804450C002308E0204600F024F80A
:402FC000241D59005B1CA4B250529BB2AB42F4D330BD000070B500210A4D5B1E0AE0541864782602545C344346193480001D891C80B289B29942F2DB994202D1515C4019A5
:40300000018070BD00102E40014940180088704700102E40014A80180180704700102E4010B50B490020487000F08EF8002000F081F9002000F06EF907210648FEF7E2FFB8
:40304000044807211830FEF7DDFF002010BD000097020020CC112E4010B506480078012803D102210448FEF7CFFF02490020C91E087010BD9702002070F02E4010B50B46E4
:40308000062812D006DC01280CD0032801D1FFF7C7FF10BD0A28FCD00B28FAD105480078107010BDFFF75AFF10BD1146184600F05DF910BD9A020020F8B5204DAC6A01278D
:4030C000A0071F4E002816DA307806280ED1286A384328621B480069F903084381B219481030FEF791FF042000F0FEF8134802212830FEF787FFE00711D0062000F0F4F8C7
:403100000F49FF20C91E48707078002802D1686B38436863094801212830FEF773FFE0050BD53078042802D1052000F0DDF80348FF2101312830FEF765FFF8BD40F02E4054
:403140009702002000002E4010B503212348FEF75BFF0120FEF7C8FF20483038406A204C80076178800F890001431C480C38FEF74BFF6078002808D0401E022181401820CD
:40318000FFF78EF9C000083800E0B82081B21548FEF73AFF1348032109021438FEF734FF10481149B830FEF72FFF612189010F48FEF72AFF0D480321001FFEF725FF0C49DA
:4031C0000C48FEF721FF0B480B496038FEF71CFF084801218838FEF717FF10BD70F02E409A020020D8102E4090890000041E2E40FF0F000058122E4020900000044800683A
:403200004007400F022801D0002070470120704700010B4000B5FFF7F1FF002805D009480168C908C900016000BD0748016A490849000162054801690122D203914301615C
:4032400000BD000000010B4040F02E4000002E400849087806280BD148780749002803D1486B400840004863C86A01221043C862704700009702002040F02E4001480078CB
:40328000704700009702002000B50300FFF770FA080D050D0B070507090D012000BD032000BD042000BD022000BDFF2000BD0000074A9168D26889B2064B92B2994204D1CD
:4032C00005498A4201D1012100E000210170704780002E4033D000003FE3000001494870704700009702002010B50446FEF704FF072C01D9FF2C01D102480470FEF7F8FE58
:4033000010BD00009702002001494870704700009402002010B5064A012805D01921C9021046FEF771FE10BD1D21C902F8E7000090002E4010B50A4A141D012808D0094976
:403340001046FEF761FE08492046FEF75DFE10BD04491046891CFEF757FE0349491DF3E788002E4031D000003AE300000078074AFF2803D04C2804D9553803E01078087019
:4033800070474F38087010707047000096020020F0B50122002830D000292ED00224420600D003246D2342065B06D21800D0641C034600221EE00C2516466E43104D00274E
:4033C0007519AF720E4F002ABB51696007D0661EB24209D106466D367606760E05E05E06760E8027BE1B00E080269B198919521C2E81D2B2A242DED300221046F0BD000026
:40340000DC060020074900200C2242435218927A012A05D0401CC0B20428F5D30020704701207047DC060020F8B5044616460F000BD0184D6868A04203D9FF306E30A0429F
:4034400003D3FF206E30864201D90120F8BD2046FFF758F800281BD0324639462046FFF760F8F0B200210C224A43521913895668F718A74208D90127A41B1B1B97728342D0
:4034800006DAC01A1469C0B2491CC9B20429EAD30020F8BDDC06002010B500F05BF80648FF22C1686E320C460448FFF73AF803492046FFF76DFF10BDA00200206C05002088
:4034C000002070470020054A002902D0012902D002E0506000E0906000207047A002002070B5084C154608460549A26889182A46FFF717F8A0684019A06028B270BD00009C
:403500006C050020A00200203EB50A226946FFF7E7FF044606480A2200686946FEF7F2FF002802D00020C0433EBD20463EBD0000A0020020002803D0FF226E32914201D230
:40354000FF20704702490A61C860002070470000A0020020024800214160816070470000A002002070B5074C15460548626880182A46FFF759FF60684019606028B270BD70
:403580006C050020A002002010B503490A220968FFF7E8FF10BD0000A002002010B50F4A002313600E4A13600E4B18600E4801600E49012008600E490860000290600E49AF
:4035C0000C4808600D4914300860FF381538506000F0BCF800F0CAF9002010BDCC020020B4020020E0020020E4020020D0020020C00200200C080020C4020020D8020020E1
:40360000014610B50020002910D0094B1A689C685118A14209D25868196080188A0704D08A07920F891A091D196010BD002010BDB4020020F8B50024164E671E321F3D468C
:403640003168136806E01422624310328A58521C1BD0641C9C42F6D36A1C14D02C461422544322460C3288500C214843FFF7C8FF3168002808510AD03168002010340851EB
:403680007068401C70602846F8BD2546E4E73846F8BD0000C4020020F3B50026F64381B000281BDB1E490968884217D80299002914D01B4F142204463F1D5443254639681C
:4036C00010354859401C09D0FEF716FD38682F1F4159C359994203DBFEF70AFD3046FEBD214608310091465801590C20704308180C220299FEF715FF0948761C001D0068BB
:40370000C159B14200D100260549009A091D865008684159491C4151FEF7EAFC0020FEBDC0020020002803DB07490968884202D90020C043704704491422091D0968504315
:403740001030085870470000C0020020F0B500200D4A451E0346171F50600FE014260146714314680E1DA3510C461668083433511668083435511468401C635039688842DD
:40378000ECD30020F0BD0000C4020020F3B50026F64381B0002841DB2349096888423DD8029900293AD0204F142204463F1D54432546396810354859401C2FD0FEF79CFCD5
:4037C0003868415900292BD0211D009146580C21005971430F46C1190C220298FEF7A1FE11480021001D0068761C00590C34C0190160416081600C48001D00680159B1422D
:4038000000D100260849009A091D865008684159491E4151FEF76CFC0020FEBD3046FEBDFEF766FCFAE70000C0020020FEB504460D4600201E49089E0860471E00900190B9
:403840000290002C11D0486885420ED2002A0CD0002E0AD0642E08D808460C3001681C2068430C18207A002801D03846FEBD0120226020721846FFF7DDFE6060401C13D0A5
:403880006681A6810A4827610C3067610179A94200D205710021684601810A462846029B00F040F82846FEBD00202072DDE70000CC02002038B50124009400F039F838BD52
:4038C000FEB50027164EFF433D4600240EE01C20316860430818017A002906D04068FFF721FF002801D0254603E0641C3079A042EDDA681C12D01C2130684D434419FEF7AD
:40390000FBFB69466068FFF741FF0546FEF7F0FB002DD9D1216868468847D5E7FEBD0000D802002038B50024009400F001F838BD1FB500220C49541E0A60002811DB4968FC
:4039400088420ED808491C220C31096850430818406801A9FFF7A0FE401C02D0002004B010BD2046FBE70000CC020020F0B50021114A4D1E174611710C3F0B46BD6016E0A2
:4039800008461C2460431668041D355114680646235014680836A3551468361DA353044616680A34335318301468491C255078688142E5D30020F0BDD802002038B50021A5
:4039C0000091002811DB0F49097888420DDA0D4D04010C3529680859002807D0201D0818694600F071F9002801D0002038BDFEF783FB28680F34015D491E0155FEF778FBCA
:403A0000009838BDE8020020F7B582B0002502986E1E06602E48D21C024017462D4A2C4610460C380178106805E02301C358002B0FD0641CE4B28C42F7D3711C28D0340153
:403A4000211D40180191039900F02CF900281FD101E02646F1E71F48016820460C300F521C480399026820460E30115419480399026820460F3011540398784300F0A0F89B
:403A8000144900280968085102D00024009011E001251AE00F48016801980818009900F02EF9002801D0012502E00098C0190090641CE4B203988442ECD3002D05D1029822
:403AC000066004480179491C0171284605B0F0BDFCFF0000F4020020F8B50D4600216A468C461180002839DB23490978884235DA214B04010C3319680A59002A2ED020468A
:403B00000C300B5A801C0E5C184670438018954224D3854222D2002006E007465F43BF18AF4206D0401CC0B2B042F6D36046002814D0114E271DC8190C366A46294600F009
:403B400008F900280AD168460088012808D030682946C01900F0D3F8002803D00120F8BD0020F8BDFEF7C8FA30680F34015D491C0155FEF7BDFAF3E7E8020020F8B50F468C
:403B8000002400F033F8002817D10C4900220B460C334A600EE021011D680E466A501D680C36AA53B61C1D680F31AA551D68641C6A54E4B2BC42EED31A71F8BDE8020020A6
:403BC000014610B5002000290CD0C91C064B8A08596892005C888A18A24202D898685A60401810BD002010BDE8020020F8B5064600200F4D009029700C0121466846FEF7AA
:403C00001DFE00280CD129460C3100980860301B001F84B221466846FEF710FE002801D0FF20F8BD6C800098A8600020F8BD0000E8020020F8B5002827DB19490978884244
:403C400023DA174C05010C342168485900281CD028460C30085A009028460E300E5C401C0E5420682F1DC01900F064F800280CD12068002445590EE0094829460C30006856
:403C8000C01900F03CF8002801D00120F8BD00982D18641CE4B2B442EED30020F8BD0000E802002030B50D4604000BD0A800FFF787FF6060002805D000202570C04360801F
:403CC000002030BD012030BD70B50D46040005D0002D03D00220205E002801DA012070BDFEF70AFA0221615E60688900405828606088401E6080FEF7FBF9002070BD70B59A
:403D00000D46040007D0002D05D002212078615E401E814201DB012070BDFEF7EDF96088401C00B26080616880000D50FEF7E0F9002070BD10B5040009D0227800216068F7
:403D4000FEF7F8FB0020C0436080002010BD012010BDF0B500231D46002802D00224045F0AE00120F0BD46689F00F6598E4201D1012503E05B1CDBB29C42F4DA157000207B
:403D8000F0BD00000148007870470000FC0200207CB505460024FEF7D9FBA8796946087000A8062229460130FEF7BBFB0021684604F060FB0C2804D0072804D01F2804D0B0
:403DC00004E0022402E0042400E0272420467CBD10B502280BD0032802D0042809D102E000F0C6F805E000F095F9FF2801D100F0A5F9FFF743FAFFF747FA10BD10B500F0B2
:403E0000CDF9FFF73BFAFFF73FFA10BD10B503240CF06AFA002810D10CF00EFA00280CD105F07EF8002808D100F094FB002804D104F07AFD002800D10024204610BD70B56F
:403E40000025044600280ED0A07901280BD8FEF77DFBA0790028204602D002F091FF03E002F046FF00E00125284670BD38B504460120002C20D0617801291DD800290BD015
:403E8000FF25E535FEF762FB2846FFF7BDF8C0B22070072803D00EE0FF25CD35F2E70020694608706846FFF703FA69460878012801D108202070002038BD70B504460120F9
:403EC000002C1FD06178012902D92278092A19D8002905D0FF25E5352078092803D004E0FF25CD35F8E708202070FEF72FFB2078082808D00020FFF71DFA21782846FFF7A9
:403F000089F8002070BD0120FFF714FA0721F5E770B50D46040001D0002000E00548002802D0012102F0DCF82946204602F03EFC70BD0000B008002038B505460020044666
:403F4000009022466946284600F0A0FF0098002801D00CF0ABF9A878214602F0E6F9A878214602F0D5F9641CE4B2052CE9D338BDF8B5624CFFF782F9012846D160480078A9
:403F8000002842D002F096FB0028FAD003F07CFF0028F6D05B4E7078C00703D000F047FC0128EED0B07E0028E7D170780025002878D0000707D5AC20FFF726F8070B00F061
:403FC00061F9384321D14F484178684603F034FE4D4F06462079B9784018C1B2B14271D802F068FB002810D0464C203402F08FF96846008802F0BBF902F064FA4349098818
:40400000884203D10120FFF76FF974E04049012008703C48807B00282BD04034608A002827D0E07E002824D1A1200001FEF7ECFF208A4000B04218D97878002815D1A12421
:4040400024012046FEF7E0FF0221884301462046FEF7E0FFFF24F1342046FEF7D5FF0321090201432046FEF7D5FF3878002800D03D7002F0BFF90120FFF730F9244C08E0C2
:40408000FEF786F8FFF7FAF806282CD02078002829D0FFF7F3F8062825D020780128EFD021E0FFE702F006FB002824D0142002F05EF9174C0120207002F09CF90020FFF71A
:4040C0000DF909E015E0FEF763F8FFF7D7F8062809D02078002806D0FFF7D0F8062802D020780128EFD0207801288BD1FFF792F825700020F8BDFF20F8BD00007C0800206D
:4041000094020020900800200203002014030020FD02002010B50848FF244078002809D102F0C8FA012805D1FEF796FF0720FFF7DBF80024204610BD9008002038B5FFF785
:404140009DF8012801D0002038BD02F0B3FA00280AD0114C6078C00703D000F068FB012802D0A07E002801D0FF2038BD617800290FD0684603F060FD022806D96846008894
:4041800002F0F5F8012002F03BF90320FFF7ACF8D9E70020F7E700009008002038B5FFF76DF8042819D0052817D006281AD0032842D007280AD10020694608700246012026
:4041C000FEF75CFFFFF75AF80128FBD138BDFDF7DFFFFFF753F80128F8D0FFF74FF80128F5D138BD02F02AF905E0FDF7D1FFFFF745F8012803D0FFF741F80128F5D1A12448
:4042000024012046FEF700FF01220E4983079B0F0A70022BE5D149880029E2D0104301462046FEF7F7FE2046FEF7EEFE410849002046FEF7EFFE38BD02F004F90120FFF742
:4042400053F838BD02030020F8B50646002402F0A9FE0546304602F0BDFE00210346012632468A40174610462F401840002F03D0002801D1224394B2491CC9B20529EFD3F1
:404280002046F8BD70B500252C460A4E03E0002C01D0002000E030460079002803D02046FFF7D2FF0543641C2406240EEFD0284670BD0000B00800201CB50020694648702A
:4042C0006846FFF7D3FD01AA69460A20FEF7D6FE6946042008561CBD10B50C4601F07CF9002809D00179002906D0C1788078224602F00AFB002010BD022010BD01480078CF
:40430000704700007C0800204030C07E002800D00120704700B500F001F800BD88214843064940186030417F491CC9B24177052901D300214177C8B27047000090080020C2
:4043400013B501F049F904000BD001F09CFC002807D0214601AA0A310620FEF78FFE00201CBD02201CBD000010B50C4601F034F900280AD001F087FC002806D02246044994
:404380000A20FEF77BFE002010BD022010BD000065080020F3B581B0074601460026029802F0F8FD0446002F01D0002500E0154D002D21D0284601F045F9032C04D13946F9
:4043C000029802F011FE06463846029901F0A0FF032C06D0002C10D00121384601F020FA03E03146384602F0B3FF284601F05EFE0221284601F074FEFEBD3846029901F081
:4044000087FFFEBDB008002070B50446002503F0A9FB002801D00C2070BD2078611C02F06DFBFF2802D01F25284670BD02F0BAFBFF2804D02178621C01F0DCFEF4E7072514
:40444000F2E710B503F08EFB002801D00C2010BD02F02CFB002010BD70B50D46044610210BF064FE1021601806460BF05FFE334610221946204603F0A1FB102130460BF0EC
:4044800055FE02202870204604F0A6F970BD70B504464078217802028006850FE0781143A67809050002090D0643084601F094F8002812D0022D10D0032D0ED0002E08D0BA
:4044C0000179092909D0002907D0214600F0A1F870BD0089002104F0B4F820460BF0E6FE70BD0020704770B50446002503F03AFB002801D00C2070BD2078611C02F0FEFA7A
:40450000FF2802D002F040FA00E01F25284670BD10B504F009FA00F0F6F8002010BD10B5044600786178E2780843A17811430843217908436179084305D003F005FB002859
:4045400003D00C2010BD122010BD204602F018FC002010BD10B5044803F026FC02F01EFA00F004F8002010BD4C080020F8B5114D00266E706E736E716E76AE76EE766E757C
:40458000AE70EE70AE712F46EE730120B03778723F207871FF20B87100F00EFA0024204601F038FB641C2406240EF8D03E72FE71AE73F8BD9008002070B505460E460846FF
:4045C00002F0F0FC0446304602F004FD0121A9400A46224001400A4301D0012070BD002070BD10B50446084602F0F4FC0121A140014201D0012010BD002010BD10B5FEF788
:404600003DFE032804D101F01DFF0120FEF76CFE10BD70B5044600790D4609281CD000281AD020464030817E491C8176204601F03DFDA078FFF76EFE0646024629462046D6
:4046400000F00CF8002806D1A0783146FFF760FC28460BF02BFE70BD0846FAE7F7B5054648780C468006870FC8788978000282B0014368468180284601F010FB060007D0A4
:4046800021462846049A00F095FB304605B0F0BD384600F03DFC0746034601AA2946204600F0CEFA68468088231DC0B20090A878FF22049902F034F8684680883B46C2B21B
:4046C000A878049902F0D8FBDFE770B5002500242846FFF7B9FD060010D03046E040C007C00F07D02146284601F005FE21462846FFF750FE641CE4B2052CEED36D1C2D065B
:404700002D0EE4D070BD10B502F048F9FFF72EFF0BF034FE002010BDF8B5002400F081F80123012800D10124104F00203E4620360425082203E0002801D0002100E03146AB
:404740000979002907D001290BD002290BD0114681402143CCB2401C0006000EEBD07C70F8BD1C43F7E72C43F5E700009008002010B5FFF7D1FF10BD10B50B4681791943E2
:40478000817103D08078114602F03AFB10BD10B582798A43827102D1807802F049FB10BD70B5FF25D53502242846FEF72DFC0C4A9178002901D0022906D1137852789A183C
:4047C000282A01D9032402E0032900D101244105490DE00201432846FEF71CFC70BD0000FE02002010B500F022F8002807D0012805D0032801D0042801D0002010BD012005
:4048000010BD014610B50020C90701D000F009F810BD014610B50020C90701D000F001F810BD10B52020FEF7EFFB000A10BD10B51820FEF7E9FB410501D5042010BD4007B8
:40484000800F10BD38B5044640060CD5684601F009FE0220FFF78CFF072002F0BBF96846007801F045F9200613D5FFF7E0FF01280FD1684601F0F6FD6846007800F09EFAE7
:40488000072002F0A7F9012001F078FC0220FFF76FFF38BD10B5034A0178117002F0A9F9002010BDFE02002010B50446FFF7B9FF002801D00C2010BDA27B01211848002A19
:4048C000827801D00A4301E05208520082706279012A0FD0C17849084900C170207901280CD06188208802F0A1FF2080207904280BD00DE0C2780A43C270EFE7E01D02F0CC
:4049000027FA0848808C208002E0E01D02F020FA054920798870204602F07AF9002010BD900800203C080020FE02002038B50478FFF777FF844201D10C2038BD002C18D0FA
:40494000072069460870FFF74DFF012807D10121684600F091F8012801D0092038BD6846007802F037F9FFF71BFF02F07EF9012014E0FFF737FF012806D1684601F072FD35
:404980006846007800F04EFA072002F023F902F063F9FFF746FF0028FBD10220FFF7E8FE002038BD10B5034A0178517002F000FA002010BDFE02002038B568460BF00CFCF1
:4049C000002801D01F2038BD01210098C90201804180002505714571857107214173857302F016F9009C202200212046FDF7A2FD25702A460021601CFDF79CFD204602F028
:404A0000F8F8204602F0D4F900980BF04FFC042200210248FDF78EFD002038BDFE0200200346084800B5834209D8184600F0D4FD002804D00089984201D1012000BD0020FC
:404A400000BD0000FF0E0000074A9179491C8906890E917138220A4092014907090E1143084302490840704790080020FF0E0000C006C00E70470000F8B507460E4600247B
:404A80000D4803E0002C01D0002500E005462979002905D0641C2406240EF3D00020F8BD204601F0B7F82E712046FFF7CDFF28813C700120F8BD0000B008002010B503F0D5
:404AC000B1F80222002100F003F801F00FFF10BD10B5094B40074907000F090F185A595A40185043C0086421FDF7EAFB002800D1012080B210BD0000702A0100F7B53D2047
:404B0000405C88B016460C46002829D030786946087200252046FFF7F7FB012800D00125204603A938300191009023460327A17E34332A46206A03F051F902A808990090A8
:404B40000B46019120463A4603A9243003F018F802466846007A3070204601F047F810460BB0F0BDFFB587B00C4605461078694608723D20005D1746002826D0002620460B
:404B8000FFF7C2FB012800D00126204603A93830019100902346A17E34333246206A03F01DF902A80090291D019120462B1D03A924300A9A02F0E4FF02006846007A388071
:404BC00002D1204601F012F810460BB0F0BDF7B53C20405C88B015460C4600280CD0287869460872002806D000262046FFF78CFB012803D003E01F200BB0F0BD0126204653
:404C000003A938300191009023460327E17E34333246E06903F0E2F802A8089900900B46019120463A4603A9243002F0DBFF02466846007A2870204600F0E2FF1046DBE790
:404C4000FFB505463C20405C87B016460C46002810D0084601F022F801280BD0308869460883002809D000272046FFF74DFB012805D005E000200BB0F0BD0220FBE701279E
:404C8000204602A93830019100902346E17E34333A46E06903F0A2F806A80090291D019120462B1D02A924300A9A02F09BFF02466846008B30806846008BA870000AE870FD
:404CC000204600F09DFF1046D5E770B50D460446FFF71AFB01280AD0E87AA97A00020143A07801F0C1FC012808D0002070BD00222421204602F0E4FC242070BD28214C203C
:404D00000155204600F09AFB282070BD002801D0002000E003484030C07F012800D0002070470000B00800200146002049070ED50021084B03E0002901D0002200E01A46D5
:404D40001279022A04D0491C0906090EF3D0704701207047B00800200146002049070ED50021084B03E0002901D0002200E01A461279022A04D0491C0906090EF3D0704716
:404D800001207047B008002010B5044680346068002803D00BF09EFA0020606010BD4030417070474030817070474030017070470171704792001018C166704770B53C25AE
:404DC00001F0F6F8040004D020460021433001F0EBFB2946204600F0C3FB002C02D0A07801F078F870BD000010B5002801D0002000E00348002802D0008903F069FC10BD53
:404E0000B008002010B5002801D0002000E00448002804D00179072901D100F041F810BDB008002010B501F0C3F8002802D0807801F050F810BD00207047000070B505469A
:404E4000008A00281ED010491122897A1140C90618D5294640314A8A098A521C4A4392B2D10800D10121540801E0621A94B2A042FBD9FEF787FF012804D1298AA87822463B
:404E800001F0E2FC70BD00003C08002000230B60052A04D292001018C26E0A60C366704738B5044600200090A079002814D14020015D052901D00E290ED168460BF09CF9AD
:404EC000002809D12046009902F0E2FB03481021C28A2046FFF750FC38BD00003C08002010B50B4604460146184602F0B1F8002802D020460BF0E4F910BD13B5044601AAB7
:404F000011460620FEF7BAF86846818861811CBD002800D10220704770470000F8B504462346401D543300909A1EA078911E01F0A8FA25464035A88A298A8000FDF7C0F97A
:404F4000401E81B2688A884203D96982A07801F0E2FF20460021433001F026FB8020FEF753F8E88102F05EFEE989891C8AB26179FFF7AEFD01F0BAFC02F054FE2A8A617949
:404F8000FFF7A6FD074601F0A3FC688A00280BD0FF26F1363046FEF737F80321090201433046FEF737F802E0002001F0A2FFFF206130FEF729F86E8A002E0BD0704310492C
:404FC000FDF76EFA0004000C01D0401C80B20D49488002E00B4800214180288A704381B2A07801F0F3FE2837B9B2204602F022FCE98AA07801F042FEA07801F0ACF9F8BDC0
:4050000071020000020300207FB504468034616805460E46183108226846FDF782FA31462031082202A8FDF77CFA102168460BF07DF86068102108300BF078F860682B4683
:40504000083024331022694602F0B8FD7FBD10B504460821FFF79BFB10212046FFF797FB207905281FD006281DD008281AD12189002003F0A5FA072020712046FFF744F962
:40508000014620464030012913D00E21017000210176204600F02AFF2046FFF775FE2046FFF7CCFE10BD20890122002103F06CFAE1E70521EAE70000FFB581B01F460446B4
:4050C0000821FFF764FB10212046FFF760FB2079082803D0092804D0042203E00422012501E009220025204600F0C4FD264600204036307022712046FFF746FE0398002D6F
:4051000002D0012808D00BE001280AD120890022029903F039FA04E02189029803F050FA012700203076012F04D0204600F0DEFE05B0F0BD02983073204602F0EDFA05466F
:4051400005480121C28A2046FFF716FB002DEFD109202071ECE700003C08002070B50C460546FFF7D1F8012809D108212846FFF70EFB0023012221462846FFF79DFF70BD35
:4051800010B5044600F076FD2046FFF7FDFD00214034217010BD70B505461A24FFF7B4F8012809D108212846FFF7F1FA0023012221462846FFF780FF70BD0000F8B50446B5
:4051C000002000900E4668460BF016F8002801D00D20F8BD8420005908212030009D00F0F7F920460421383000F0F2F9002E02D1204600F07DFD2946204602F0D9F90E4898
:405200000821C28A2046FFF7B7FA204600F0D5FE25464035002808D0204600F023F8002801D0092028700020F8BD08202870204600F03CFFF7E700003C080020014610B544
:4052400040310A460978082906D0092907D00A2901D100F091F810BD0B20107010BD00F001F810BD70B50446007925464035052805D0062803D008280FD00C2070BD03220B
:405280000621204602F01CFA0D480821C28A2046FFF772FA1120287010E006202873204602F03AFA0646AA8A0A20424301212046FFF762FA002E01D109202071002070BDB1
:4052C0003C08002038B504460020009068460AF093FF002801D00D2038BD2046009D00F08DF908202071204600F002FD2946204602F090F900213D2001550F204021085576
:40530000204600F0D3FE002038BD00B5024600F0B1FC10214032117000BD10B50446FEF7F3FF012809D04020005D112805D100231A4606212046FFF7BFFE10BD10B5FFF7A7
:4053400086FE10BD38B504460021684600910AF053FF00280CD12046009902F0D2F905480821C28A2046FFF707FA0D204034207038BD00003C08002038B504460021684689
:4053800000910AF039FF002801D00D2038BD2046009902F0ABF905480821C28A2046FFF7EBF90C2040342070002038BD3C08002000787047F8B50025002801D0002400E0D1
:4053C0001A4C002C28D0204600F05DFC002823D0207903281CD005281CD026464036B18AA07801F001FDB078012815D10021204601F04BFE274680373868002802D00AF0BC
:4054000069FF3D600020B0702079072805D007E0042000E006202071F8BD2046FFF70EFD0221204600F05CFEF8BD0000B008002010B54C22115400F046F810BD10B50446CA
:40544000FF21FFF7A4F909202071A07801F0FCFC10BD000038B5FF216A461180002801D0002400E0064C002C08D011460620FDF705FE684601882046FFF73FFD38BD000018
:40548000B008002010B504468079002809D022214C200155FF212046FFF779F9204600F012F810BD10B5037902464032002B03D01173092B02D003E0002100E022211173BD
:4054C00000F001F810BDFEB504460089002700902781207926464036002817D0012815D002280AD112E002AA01A9204601F09EFD002807D101980AF0E3FE204601F0BEFDB4
:405500000028F0D02046FEF717FDB776254680352868002802D00AF0DDFE2F606868002802D00AF0D7FE6F60317B002915D0009800F047F8A078002100F026FF2046FFF746
:40554000BDFAA07801F07AF8A07800F0C3FC0B20FFF70EF900F002FCFEBD1F213173E6E770B50E46054602F059FB044606702846FEF7CAFE014601204140204661700C305F
:4055800000F0FBFF002D10D02889608028464030C1782171002E10D169796171018AE180418A2181808A608107E01820FDF72CFDC005C00F207100206080204602F0A9FF52
:4055C00070BD0A4610B50146002003F099F810BD10B50AF087FB10BD00B50146FFF748FA002801D0002000E00348002802D002898A4200D0002000BDB008002038B504461E
:4056000080346068002806D168460AF005FE002801D100986060606838BD000010B5014600F03CFB0128887802D0FEF777FE10BD88214843024940186030007F10BD00001D
:405640009008002070B5054604464035A87F012811D1A1788820084A484380186030067F3046FEF7A9FF002805D10220A877A078314601F0A9F870BD9008002010B50E4C4F
:40568000E079002816D0FFF720F80C48827FC17F808B00F06BFB01280CD10020E07100F0EAFE0446AC20FDF7AFFC010B02D0204600F00EFA10BD0000400900209008002051
:4056C00070477047490510B5490F0B00FDF750F8060704080C0C0F073E21FFF7A9FE10BD0821FFF7DFFE10BDFFF7EDFE10BDFFF7C9FE10BDF8B507460025002D01D0002636
:4057000000E0204E00F06CFE3046403044890021418100F08BFE304600F0B5FA01282BD1A00702D52846FFF745FEE00602D52846FFF790FEA00601D5FEF7C7FF600601D531
:4057400000F0C8FA200602D5284600F01DF8600702D5284600F0FAF9380402D52846FFF751FB780402D52846FFF73EFBE00703D021463046FFF7A6FF6D1C2D062D0EBCD010
:40578000F8BD0000B0080020F8B5002801D0002400E0204C002C39D025464035A878012834D1E98AA07801F069FA2046FEF7ACFD01282BD002F036FA2A8A6179FFF788F9B5
:4057C000064601F085F82836B1B2204602F032F8E98AA07801F052FAFF206130FDF714FC6E8A0D4F0146002E11D0304648430B49FCF756FE0004000C01D0401C80B2788083
:40580000288A704381B2A07801F0E0FAF8BD0020F5E70000B0080020020300207102000070B50D46124A010001D0002401E014462034002C1BD0204600F030FA01280AD1D8
:405840008820484380186030007FFEF7B5FE002801D101F0EBFE20464030817E491B8176204600F023FC2089294602F0EAFE70BD9008002070B503460088FFF7ADFE0400BB
:4058800013D000F000FA00280FD02079092819D02546997840352973204601F03DFF0646A878012803D0AA8A02E0022070BDEA880A20424301212046FEF75EFF002E01D179
:4058C00009202071002070BD0EB5002217216B460292198100905A810120029B00990AF06BFD0EBDF8B5184E0024F079002820D10025AC20FDF788FB000B21E0204600F033
:405900006FFEFDF781FB07462A46214600F02EFA01280FD00D48012187838577C477F171002D01D0002000E02030002801D000F0BDFBF8BDAC20FDF767FB000B641CE4B245
:405940000028DBD1F8BD0000400900209008002010B50088FFF740FE002809D0014640310C460978082905D00B2903D00C2010BD022010BDFFF776FC002801D00920207061
:40598000002010BD70B503460088FFF725FE040008D0254640352878082805D00B2803D00C2070BD022070BD8420005910220830991CFCF7B6FD2046FFF726FB28780828CD
:4059C00004D02046FFF7D8FC002801D00A202870204600F06BFB002070BD000010B50C46002121700088FFF7F7FD03000BD000F04AF9002807D009481121807A0840C00609
:405A000003D4112010BD022010BD022020701A8A1889002102F090FE002010BD3C080020F8B50F46002100910088FFF7D5FD040012D000F028F900280ED0E079410641D403
:405A4000617E02264A07002A08DB8907402500291ADA2843E07135E00220F8BD02F0DEF80021017021894180A1898180217E4170E189C1803E7005460178134802F0C2FBA0
:405A8000284602F0FDFD1DE0204600F00DF9012806D068460AF0B0FB002803D00720F8BD2A20F8BDE07900992843E071204601F05DFE607E0421304360760448C28A204661
:405AC000FEF75AFE0020F8BD1D0400003C0800203EB500220F236C460292238100910190628169460EC900200AF066FC3EBD000070B5054600F05CFA040021D0032020716D
:405B0000254600264035EE76E6702046FFF706FA01F0A2F80920FEF72BFEA07800F07CFD0121204600F0DCFA2E706E70AE7000212046FFF715FD0449887B401C887370BDAB
:405B4000284601F081F970BD9008002010B5002801D0002400E00A4C002C0FD020464030417802290AD1002141702046FEF7CCFB002803D10221204600F0B2FA10BD0000CD
:405B8000B008002070B503460D460088FFF724FD04000BD000F077F8002807D012481121807A0840C00603D4112070BD022070BD20464030418A008A491C41430804C10C6B
:405BC0005888884201D2122070BD20822079072802D12046FFF732F9022028702089002102F0D2FD002070BD3C080020016A491C016204D1817E491C4906490E817670474F
:405C0000C169491CC16104D1C17E491C4906490EC176704770B500250646002801D0002400E0114C002C1CD0882200212046FCF781FCA6700020264620714036307020464E
:405C400000F018F8204601F015FA084820820848B577807A1121084000D001202075012070BD002070BD0000B0080020B80B00003C080020002101628176C161C176203098
:405C80000177417770470079002805D0012803D0022801D001207047002070474030807F002800D00120704740300078002807D0012805D0052803D00E2801D001207047DE
:405CC0000020704710B5807801F084F9002800D0012010BD10B500F0CEFB0446AC20FDF793F9010B02D02046FFF7F2FE10BD000070B5054604464035A87F002823D1FF2020
:405D00006075A0788821144A484380186030417F8823491CC9B24177A078584380186030052901D300214177A0788821484380186030467F0677A1783046FEF73DFC002868
:405D400002D00120A87770BD0220A877A078314600F03AFD70BD0000900800200020401C0006000EFBD0002070470000F0B515468207920F85B0C004C00E02926A46908091
:405D8000002D01D0002400E0514C002C29D0084600F026FC03906846808800280BD00298012845D0022843D003280CD03D20005D012872D086E00398FDF726F90146204671
:405DC000FFF79BF87EE00020029002A80AF0F4F9002807D03D20005D012876D12046FFF705FF72E06846029E8388324600210398FDF780F80398FDF707F901462046FFF773
:405E00007CF8284600F0B9FA01AA21463046FEF775FE002806D030460AF03EFA3D204C21085528E0F5773146204601F071FA4CE000200090278968460AF0AEF9002802D09E
:405E4000002005B0F0BD6846009E8388321D00210398FDF74FF80398FDF7D6F801462046FFF74BF8284600F088FA25464035287E00280CD103E02046FFF7E0FA25E001AA8C
:405E800021463046029BFEF76DFE002806D030460AF0F8F93D202873EDE710E00298FFF73BF8390A000101433770717068468088B070000AF0703046FFF706FD05E0204620
:405EC000FFF794FE284600F058FA0120B9E70000B008002010B5044A917B002901D0491E9173FFF797FE10BD90080020F8B5074606464037B87F00283DD0B07888210090B3
:405F000048431F4945186035287F0099FEF769FB012831D0287F401CC4B2052C00D300240020B877FF276F772F77A87702460146009800F0C9FD717DFF2903D0304601F0CB
:405F40005AF8777501F072FB00252F462246694630460097FEF79AFF0099002902D03046FEF757FB641CE4B2052C00D300246D1CEDB2052DEAD3F8BD0320B877F8BD0000D7
:405F80009008002010B502460021084B03E0002901D0002000E018460479944204D0491C0906090EF3D0002010BD0000B008002000B50120FFF7E6FF00BD10B5044601F0C5
:405FC0002DFE2189018080346168416061682831816002F00FFB10BDF7B50646087982B00C46092807D0A078F0770846FFF756FE012806D010E030460AF062F9022005B0B4
:40600000F0BDA1788820284A484380186030007FFEF7D2FA012810D0A078FEF777FE01280BD037780121304601F0ADFA25462035062F36D00B2F0FD107E06846027C214690
:406040003046FEF74DFF0D20D9E72046FEF75CF9012801D1002028772046FFF7DFFA054604AA21463046FEF7B2FD01205F2108556946087C0090A07833463A46294600F032
:406080004FFB69460A7CA0780323294600F0F4FEA0782946FDF73CFF30460AF011F90020ADE70120D7E700009008002010B502464032937F0021002B03D1927E002A00D09C
:4060C0000121064AD279002A00D000210279092A00D10121807800F0F9FE10BD4009002070B50C460646FEF70FF9002814D1012C0ED935464035A87800280DD16878022811
:406100000AD03079092807D03046FFF7DBFD0446204600F008FE70BD0124F9E770B50D4601280BD0082808D1A8241146B020FCF771FF29462046FCF76DFF70BD2020FAE75B
:4061400010B501460820FCF765FF10BD10B50446FF20F130012C01D1FF20D530002200F000FF1020FCF750FF0349A043088001461020FCF74FFF10BD0603002010B504465E
:406180001020FCF741FF0449A043088001461020FCF740FF10BD00000603002010B50446012802D0082C07D102E0FF20D53001E0FF20F13000F0CAFE1020FCF725FF04499C
:4061C0002043088001461020FCF724FF10BD00000603002010B504461020FCF715FF04492043088001461020FCF714FF10BD000006030020F8B507460120B84085B214469C
:406200000E46012229467C2000F0ABFE32462946782000F0A6FE6078217800020143E078A5780002054360792679000206430C2047430D2080013C182046FCF7EBFE241DBC
:4062400029462046FCF7E6FE201D3146FCF7E2FEF8BD401880B270478B00034310B5D10191201943C000FCF7D5FE10BD70B505460C46407829780002014341200001FCF777
:40628000C9FEE878A978000201430A48FCF7C2FE60782178000201438320C000FCF7BAFEE078A1780002014302480830FCF7B2FE70BD00001404000070B50D46044681B270
:4062C00001208002FCF7A6FE210C0448FCF7A2FE81202946C000FCF79DFE70BD0404000070B5054600242846FCF78EFE641CA4B2102CF8D370BD10B50C460146B020FCF719
:4063000089FEFF2021462D30FCF784FE10BD704710B50C460146B020FCF77CFE204600F04BFE0021FCF776FE10BD70B50C46054600F005F821462846FFF7DDFF70BD10B523
:406340000C460146B020FCF765FEFF2021462930FCF760FE10BD10B50146B020FCF75AFEFF20002220211D3000F0FBFD10BD10B50146C020FCF74EFE10BD010210B54D3178
:406380000020FCF747FE10BD10B504020029014608D0B020FCF73EFE214675310020FCF739FE10BDB020FCF735FE512000214001FCF730FE00210348FCF72CFE2146763101
:4063C000ECE70000240A000010B554210020FCF721FE10BD10B553210020FCF71BFE10BD10B5034908884880FFF7C8FE10BD00000603002010B550210020FCF70BFE10BDF7
:4064000010B50E2400280CD0C420FCF7FDFD20430146C420FCF7FEFD51210020FCF7FAFD10BDC420FCF7F0FDA043F1E710B502484088FFF7CFFE10BD0603002010B5FCF704
:4064400007FF10BD10B552210020FCF7E3FD10BD884201D8081A03E00022D243101A401880B2704710B504461820FCF7CDFD8004400F207010BD10B5B020FCF7C5FDC0B217
:4064800010BDF8B50E4601461C461546B020FCF7C1FDFF20E930FCF7B7FD0746FF200130FCF7B2FD3080FF200930FCF7ADFD2880FF200530FCF7A8FD208079070698490F1C
:4064C0000170F8BD10B5C820FCF79EFD10BD10B50C46002812D05820FCF796FD2070000A60705C20FCF790FDA070000AE0706020FCF78AFD2071000A607110BDFF20C1303C
:40650000FCF782FD2070000A6070FF20C530FCF77BFDA070000AE070FF20C930E8E7000000B5024A00F004F800BD0000FF7F000000B51346FFF78CFF984201D8022800D249
:40654000002000BD10B50146B020FCF763FD0248FCF75AFD10BD0000080A000010B52420FCF752FD10BD10B50146B020FCF752FDFF202130FCF748FD10BD70B504466820FA
:40658000FCF742FD06466C20FCF73EFD05467020FCF73AFD2670310A6170A570290AE1702071000A607170BD10B50446012905D01820FCF729FDC00B207010BD4820FCF7E8
:4065C00023FD8007C00FF7E710B50146B020FCF721FD0248FCF718FD10BD0000280A00000120C0027047000010B50146B020FCF711FD0248FCF708FD10BD00000C0A00006D
:4066000010B50C460146B020FCF704FD0321A0014902401810BD00008821074B414310B5C918FF2260314A770A7700228A77114600F04AFA10BD000090080020882250437A
:40664000074A10B58018FF21603041770177002181770448418EFF201D3000F077FC10BD900800203C08002010B50C460146B020FCF7D0FCFF202530FCF7C6FC02222146FF
:4066800000F002F810BD000010B50023884201D8081A03E00024E443201A4018044980B2884201D8824200D90123184610BD0000FF7F000010B5C420FCF7A6FC0006C00F17
:4066C00010BD000010B50348FCF79EFCC007C00F10BD00002C0A0000F8B503465078167800020643D07895780002054350791779000288240743002900D098241946B0202C
:40670000FCF788FC31462046FCF784FC201D2946FCF780FC204608303946FCF77BFCF8BDFFB581B014460D4606460A9FFFF768FF3B460021049AFCF74DFC0248401984555F
:4067400005B0F0BD0A03002070B506460D4611242520A40108214001FCF75CFC2B46324600212046FCF736FC70BD70B5212405466401FFF72FFE10232A4600212046FCF7D6
:4067800029FC70BD10B5044640782178000201438F20C000FCF73EFCE078A178000201430148FCF737FC10BD7C04000010B50C460146B020FCF72EFC802021460143FF201D
:4067C0002930FCF727FC10BD70B50D460146B020FCF720FCFF241D342046FCF715FC01090901FF202943013001432046FCF712FC70BDF8B500242646012807D0032802D0FF
:40680000052808D105E002240A2604E004240C2601E004240D26492701463F013846FCF7F9FB25204001FCF7EFFBC5B228462042F7D0252031464001FCF7ECFB002138465A
:40684000FCF7E8FB2846F8BD70B50D46044601461646B020FCF7DEFB512029464001FCF7D9FB31460648FCF7D5FB032189030820FFF794FC210275310020FCF7CBFB70BD81
:40688000240A000070B50D4604460146B020FCF7C1FBFF2029461930FCF7BCFB21024B310020FCF7B7FB70BD70B5491E8CB205460146B020FCF7AEFBFF2021461930FCF786
:4068C000A9FB29024C310020FCF7A4FB70BD0000054910B5884200D908460146FF206130FCF798FB10BD0000FF0F0000054910B5884200D908460146FF206530FCF78AFB9A
:4069000010BD0000FF0F000070B588251446002900D098250146B020FCF77CFB2846FCF773FB2070000A6070281DFCF76DFBA070000AE07028460830FCF766FB2071000A41
:40694000607170BD10B51446024611200B4680010021FCF72BFB012C01D1FFF735FD10BD10B504460920C001FCF74EFB2070000A60700448FCF748FBA070000AE070FFF700
:4069800023FD10BD840400000121814010B589B200227C2000F0E5FA10BD000070B5FF210120FFF7D3FBFF210820FFF7CFFB3020FFF7E4FB80210020FCF72CFB002211467A
:4069C0000320FCF75BFB374DFF20A98DD530FCF721FB0024FF26F1362146B020FCF71AFB298F3046FCF716FB2046FFF727FE641C2406240EF0D0FF20A98FF930FCF70AFBC8
:406A000028481030044600F073F9204600F0B8F900F04CF8234CB82040346188FCF7FAFAA188BC20FCF7F6FAE188C420FCF7F2FAFF20698EE130FCF7EDFAA1200021000142
:406A4000FCF7E8FA3920FFF7C5FBFFF7C3FC93200721C000FCF7DEFAFFF7B6FCE020FFF73FFCE820FFF73CFCF020FFF739FC0020FEF724F8618A0C48FCF7CCFA0A48282109
:406A8000001DFCF7C7FAFF210131AC20FCF7C2FA832000218000FCF7BDFA5B210020FCF7B9FA70BD3C080020140A000010B500217C20FCF7AFFA00217820FCF7ABFA742155
:406AC0000020FCF7A7FA10BD70B50D4601461446B020FCF79FFAFF261D363046FCF794FA01090901FF20294301308143002C01D1102041403046FCF78DFA70BDF3B589B0F0
:406B0000FF2001900D208001009048780D7800020543C8788E780002064348790979000201437C200791FCF76FFA06907820FCF76BFA059074210020FCF76CFA1848002481
:406B4000049026E00120A04087B20098FCF75CFA03900098FCF758FA02900098FCF754FA039A29465140029A72401143079A424011430BD10698074208D00598E040C107AF
:406B80000998C90F814201D1019405E0641C0498E4B20078A042D5D801980BB0F0BD00007C08002070B5FF257C20FCF72DFA0849002401230A7805E01946A140014205D098
:406BC000641CE4B2A242F7D8284670BD2546FBE77C08002010B504461820FCF715FA0721C90288436107890C01431820FCF712FA10BD10B50446E020FFF772FB2078224682
:406C0000401CC3B20021E020FCF790F910BD000010B5044641790079042817D040000843A17B032901D8C9000843617B4A010243A079010207201143C00201431820FCF7D0
:406C4000E9F921881C20FCF7E5F910BD08460149E5E700000204000010B50120FFF78EFA41210020FCF7D6F910BD10B50120FFF7B1FA40210020FCF7CDF910BD10B50C462B
:406C80000146B020FCF7C6F9FF2021460D30FCF7C1F910BD70B50C4601461E461546B020FCF7B8F9E92021468000FCF7B3F975202946C000FCF7AEF9EB2031468000FCF7FB
:406CC000A9F96C433B20A1B20001FCF7A3F970BD70B50C4601461546B020FCF79BF921468420FCF797F929468020FCF793F970BD10B504464078217800020143FF20C13069
:406D0000FCF788F9E078A17800020143FF20C530FCF780F96079217900020143FF20C930FCF778F910BD70B5A124054624012046FCF76AF9012D07D041084900814202D064
:406D40002046FCF767F970BD014601221143F5E710B5044640782178000201436820FCF759F9E078A178000201436C20FCF752F960792179000201437020FCF74BF910BD52
:406D800010B5044640782178000201435820FCF741F9E078A178000201435C20FCF73AF960792179000201436020FCF733F910BD10B50446E820FFF793FA20782246401C14
:406DC000C3B20021E820FCF7B1F810BD10B50C460146B020FCF71EF921460248FCF71AF910BD00001C0A000010B50C460146B020FCF710F9FF2021460530FCF70BF910BD01
:406E000070B5054688000521FBF75AFA84B22946B020FCF7FFF821460448FCF7FBF8290272310020FCF7F6F870BD0000040A000010B504460146B020FCF7ECF82102733128
:406E40000020FCF7E7F810BD10B504460146B020FCF7E0F8210270310020FCF7DBF810BD10B504460146B020FCF7D4F8210271310020FCF7CFF810BDF8B505461E461446E4
:406E80000F46084600F098F800902802A1000843304304462946B020FCF7BCF821460098FCF7B8F80148C0194655F8BD0F03002010B50446B820FCF7A7F88005800DA102F2
:406EC000014389B2B820FCF7A5F810BD70B50D460146B020FCF79EF8FF241D342046FCF793F840218843A90101432046FCF792F870BD70B5A124054624012046FCF784F815
:406F00000222002D01D0104300E0904301462046FCF780F870BD70B50D460146B020FCF779F8FF2029460930FCF774F8A12424012046FCF769F80222002D01D0104300E0D2
:406F4000904301462046FCF765F870BD70B50C460546FCF759F8204301462846FCF75AF870BDF8B516460D460746FCF74DF8014600202C0003D104E06408401C80B2E20775
:406F8000FAD08640A9430E43B1B23846FCF742F8F8BD0000024A1018405C8007800F70470F03002010B50146B020FCF733F8FF202D30FCF729F810BD8000FF304130704704
:406FC0000246FF20052902D201484018805C70470A03002010B50146B020FCF71BF8FF202930FCF711F810BD0A4600B501461046FFF7E6FF00BD38B50C4605460021684611
:40700000009109F0F9F8002804D1009928464C7000F09EFB38BD10B5044680780021FFF72DFE01212046FFF75BF810BD436E002B0CD00B60014660318B781370826E426697
:40704000CA788A700021816608467047FF20704710B50346446E6033002C04D0846E002C04D0FF2010BD41669A7001E08166DA70002010BD0021416681667047406E0028D4
:4070800001D000207047FF20704770B50446C0790D46810610D5DF210840E07100F0BEFD0570218941804034218A8180618AC180A18A018101F000FA70BD000010B50446A7
:4070C000FEF7ECFD01280AD1A1788820054A484380186030007FFDF76FFA012801D000F0A5FA10BD9008002070B50D460446FDF70BF901281CD02079042801D0072816D186
:40710000E879AE7900020643A0783146FFF7ACFA012813D03246691C204600F035FA02212046FDF73CFE01212046FEF7D9FF70BD01222421204600F0C3FA70BD28214C202D
:4071400001552046FEF77AF970BD70B50D460646FDF7BBFD002847D120213046FDF717FB3446687840346073E87820220002E081A9780843E0816879010228790843218A63
:40718000814203D0F1791143F1712082E8790102A8790843618A814203D0F1791143F1716082687A0102287A0843A18AE180814203D0F1791143F171A082A08A218A800099
:4071C000FBF77EF8401E618A80B2814200D9608201213046FDF7E6FDE87AA97A000201430022304600F0DCFA70BD0000F8B50C460546FDF789F8012849D0294EB07AC00700
:4072000009D02846403000900078002805D0102805D01F212EE01A212CE0002700E001272846FEF7EBF9002823D02E4680360822611C7068FBF775F97068617A20300172E0
